{
  "contractName": "GCoin",
  "abi": [
    {
      "inputs": [],
      "stateMutability": "nonpayable",
      "type": "constructor"
    },
    {
      "anonymous": false,
      "inputs": [
        {
          "indexed": false,
          "internalType": "address",
          "name": "_receiver",
          "type": "address"
        },
        {
          "indexed": false,
          "internalType": "uint256",
          "name": "_amount",
          "type": "uint256"
        }
      ],
      "name": "TokenSold",
      "type": "event"
    },
    {
      "anonymous": false,
      "inputs": [
        {
          "indexed": false,
          "internalType": "address",
          "name": "_sender",
          "type": "address"
        },
        {
          "indexed": false,
          "internalType": "address",
          "name": "_receiver",
          "type": "address"
        },
        {
          "indexed": false,
          "internalType": "uint256",
          "name": "_amount",
          "type": "uint256"
        }
      ],
      "name": "hasTransfer",
      "type": "event"
    },
    {
      "inputs": [],
      "name": "decimal",
      "outputs": [
        {
          "internalType": "uint256",
          "name": "",
          "type": "uint256"
        }
      ],
      "stateMutability": "view",
      "type": "function",
      "constant": true
    },
    {
      "inputs": [],
      "name": "owner",
      "outputs": [
        {
          "internalType": "address",
          "name": "",
          "type": "address"
        }
      ],
      "stateMutability": "view",
      "type": "function",
      "constant": true
    },
    {
      "inputs": [],
      "name": "peerToPeerLendingContractAddress",
      "outputs": [
        {
          "internalType": "address",
          "name": "",
          "type": "address"
        }
      ],
      "stateMutability": "view",
      "type": "function",
      "constant": true
    },
    {
      "inputs": [],
      "name": "symbol",
      "outputs": [
        {
          "internalType": "string",
          "name": "",
          "type": "string"
        }
      ],
      "stateMutability": "view",
      "type": "function",
      "constant": true
    },
    {
      "inputs": [
        {
          "internalType": "address",
          "name": "_address",
          "type": "address"
        }
      ],
      "name": "setpeerToPeerLendingContractAddress",
      "outputs": [],
      "stateMutability": "nonpayable",
      "type": "function"
    },
    {
      "inputs": [
        {
          "internalType": "address",
          "name": "_receiver",
          "type": "address"
        },
        {
          "internalType": "uint256",
          "name": "_amount",
          "type": "uint256"
        }
      ],
      "name": "mint",
      "outputs": [],
      "stateMutability": "nonpayable",
      "type": "function"
    },
    {
      "inputs": [
        {
          "internalType": "address",
          "name": "_receiver",
          "type": "address"
        },
        {
          "internalType": "uint256",
          "name": "_amount",
          "type": "uint256"
        }
      ],
      "name": "send",
      "outputs": [],
      "stateMutability": "nonpayable",
      "type": "function"
    },
    {
      "inputs": [
        {
          "internalType": "address",
          "name": "_sender",
          "type": "address"
        }
      ],
      "name": "getBalance",
      "outputs": [
        {
          "internalType": "uint256",
          "name": "",
          "type": "uint256"
        }
      ],
      "stateMutability": "view",
      "type": "function",
      "constant": true
    },
    {
      "inputs": [
        {
          "internalType": "address",
          "name": "_receiver",
          "type": "address"
        },
        {
          "internalType": "uint256",
          "name": "_amount",
          "type": "uint256"
        }
      ],
      "name": "transferBackToUser",
      "outputs": [],
      "stateMutability": "nonpayable",
      "type": "function"
    },
    {
      "inputs": [
        {
          "internalType": "address",
          "name": "_sender",
          "type": "address"
        },
        {
          "internalType": "uint256",
          "name": "_amount",
          "type": "uint256"
        }
      ],
      "name": "transferToPeerToPeerLendingContract",
      "outputs": [],
      "stateMutability": "nonpayable",
      "type": "function"
    }
  ],
  "bytecode": "0x60806040526040518060400160405280600581526020017f47434f494e0000000000000000000000000000000000000000000000000000008152506001908051906020019061004f9291906100a8565b50600660025534801561006157600080fd5b5033600360006101000a81548173ffffffffffffffffffffffffffffffffffffffff021916908373ffffffffffffffffffffffffffffffffffffffff160217905550610153565b828054600181600116156101000203166002900490600052602060002090601f0160209004810192826100de5760008555610125565b82601f106100f757805160ff1916838001178555610125565b82800160010185558215610125579182015b82811115610124578251825591602001919060010190610109565b5b5090506101329190610136565b5090565b5b8082111561014f576000816000905550600101610137565b5090565b610a63806101626000396000f3fe608060405234801561001057600080fd5b506004361061009e5760003560e01c80638da5cb5b116100665780638da5cb5b146101df57806395d89b4114610213578063d0679d3414610296578063f5e1b2a3146102e4578063f8b2cb4f146103285761009e565b80632cf9954b146100a357806340c10f19146100f15780634342c5a71461013f5780637107cc9d1461017357806376809ce3146101c1575b600080fd5b6100ef600480360360408110156100b957600080fd5b81019080803573ffffffffffffffffffffffffffffffffffffffff16906020019092919080359060200190929190505050610380565b005b61013d6004803603604081101561010757600080fd5b81019080803573ffffffffffffffffffffffffffffffffffffffff16906020019092919080359060200190929190505050610474565b005b6101476105ce565b604051808273ffffffffffffffffffffffffffffffffffffffff16815260200191505060405180910390f35b6101bf6004803603604081101561018957600080fd5b81019080803573ffffffffffffffffffffffffffffffffffffffff169060200190929190803590602001909291905050506105f4565b005b6101c96106e8565b6040518082815260200191505060405180910390f35b6101e76106ee565b604051808273ffffffffffffffffffffffffffffffffffffffff16815260200191505060405180910390f35b61021b610714565b6040518080602001828103825283818151815260200191508051906020019080838360005b8381101561025b578082015181840152602081019050610240565b50505050905090810190601f1680156102885780820380516001836020036101000a031916815260200191505b509250505060405180910390f35b6102e2600480360360408110156102ac57600080fd5b81019080803573ffffffffffffffffffffffffffffffffffffffff169060200190929190803590602001909291905050506107b2565b005b610326600480360360208110156102fa57600080fd5b81019080803573ffffffffffffffffffffffffffffffffffffffff1690602001909291905050506107c1565b005b61036a6004803603602081101561033e57600080fd5b81019080803573ffffffffffffffffffffffffffffffffffffffff169060200190929190505050610805565b6040518082815260200191505060405180910390f35b3373ffffffffffffffffffffffffffffffffffffffff16600460009054906101000a900473ffffffffffffffffffffffffffffffffffffffff1673ffffffffffffffffffffffffffffffffffffffff1614610443576040517f08c379a000000000000000000000000000000000000000000000000000000000815260040180806020018281038252601f8152602001807f4f6e6c792050656572546f506565724c656e64696e67436f6e7472616374200081525060200191505060405180910390fd5b61047082600460009054906101000a900473ffffffffffffffffffffffffffffffffffffffff168361084d565b5050565b3373ffffffffffffffffffffffffffffffffffffffff16600360009054906101000a900473ffffffffffffffffffffffffffffffffffffffff1673ffffffffffffffffffffffffffffffffffffffff1614610537576040517f08c379a00000000000000000000000000000000000000000000000000000000081526004018080602001828103825260138152602001807f4f6e6c79206f776e65722063616e2063616c6c0000000000000000000000000081525060200191505060405180910390fd5b610588816000808573ffffffffffffffffffffffffffffffffffffffff1673ffffffffffffffffffffffffffffffffffffffff16815260200190815260200160002054610a1190919063ffffffff16565b6000808473ffffffffffffffffffffffffffffffffffffffff1673ffffffffffffffffffffffffffffffffffffffff168152602001908152602001600020819055505050565b600460009054906101000a900473ffffffffffffffffffffffffffffffffffffffff1681565b3373ffffffffffffffffffffffffffffffffffffffff16600460009054906101000a900473ffffffffffffffffffffffffffffffffffffffff1673ffffffffffffffffffffffffffffffffffffffff16146106b7576040517f08c379a000000000000000000000000000000000000000000000000000000000815260040180806020018281038252601f8152602001807f4f6e6c792050656572546f506565724c656e64696e67436f6e7472616374200081525060200191505060405180910390fd5b6106e4600460009054906101000a900473ffffffffffffffffffffffffffffffffffffffff16838361084d565b5050565b60025481565b600360009054906101000a900473ffffffffffffffffffffffffffffffffffffffff1681565b60018054600181600116156101000203166002900480601f0160208091040260200160405190810160405280929190818152602001828054600181600116156101000203166002900480156107aa5780601f1061077f576101008083540402835291602001916107aa565b820191906000526020600020905b81548152906001019060200180831161078d57829003601f168201915b505050505081565b6107bd33838361084d565b5050565b80600460006101000a81548173ffffffffffffffffffffffffffffffffffffffff021916908373ffffffffffffffffffffffffffffffffffffffff16021790555050565b60008060008373ffffffffffffffffffffffffffffffffffffffff1673ffffffffffffffffffffffffffffffffffffffff168152602001908152602001600020549050919050565b806000808573ffffffffffffffffffffffffffffffffffffffff1673ffffffffffffffffffffffffffffffffffffffff168152602001908152602001600020541015610901576040517f08c379a00000000000000000000000000000000000000000000000000000000081526004018080602001828103825260108152602001807f4e6f7420656e6f756768206d6f6e65790000000000000000000000000000000081525060200191505060405180910390fd5b806000808573ffffffffffffffffffffffffffffffffffffffff1673ffffffffffffffffffffffffffffffffffffffff16815260200190815260200160002060008282540392505081905550806000808473ffffffffffffffffffffffffffffffffffffffff1673ffffffffffffffffffffffffffffffffffffffff168152602001908152602001600020600082825401925050819055507f70021d1c9a2ebea52149174a62198427b896a1d193ebd19a4388f33b1f05ac75838383604051808473ffffffffffffffffffffffffffffffffffffffff1681526020018373ffffffffffffffffffffffffffffffffffffffff168152602001828152602001935050505060405180910390a1505050565b600080828401905083811015610a2357fe5b809150509291505056fea264697066735822122060cc60e1cd45539641d5e4dfef0e84408450b45f6336380dd6aab2e1e744fe9664736f6c63430007060033",
  "immutableReferences": {},
  "source": "pragma solidity >= 0.7.0 <= 0.8.0;\n\nimport './DoMath.sol';\nimport './Ownable.sol';\ncontract GCoin {\n    using DoMath for uint;\n\n    mapping (address => uint) balances;\n    string public symbol = 'GCOIN';\n    uint public decimal = 6;\n    address public owner;\n    address public peerToPeerLendingContractAddress;\n    \n    constructor() public {\n        owner = msg.sender;\n    }\n\n    event hasTransfer (address _sender, address _receiver, uint _amount);\n    event TokenSold(address _receiver, uint _amount);\n\n    modifier onlyOwner () {\n        require(owner == msg.sender,'Only owner can call');\n        _;\n    }\n\n    modifier onlyPeerToPeerLendingContract () {\n        require(\n            peerToPeerLendingContractAddress == msg.sender,\n             'Only PeerToPeerLendingContract '\n            );\n        _;\n    }\n\n    function setpeerToPeerLendingContractAddress (address _address) public {\n        peerToPeerLendingContractAddress = _address;\n    }\n\n    function mint (address _receiver, uint _amount) public onlyOwner {\n        balances[_receiver] = balances[_receiver].add(_amount);\n    }\n\n    function send(address _receiver, uint _amount) public {\n        _transfer(msg.sender, _receiver, _amount);\n    }\n\n    function getBalance (address _sender) public view returns (uint) {\n        return balances[_sender];\n    }\n\n    function _transfer (address _sender, address _receiver, uint _amount) private {\n        require(balances[_sender] >= _amount, 'Not enough money');\n        balances[_sender] -= _amount;\n        balances[_receiver] += _amount;\n        emit hasTransfer(_sender, _receiver, _amount);\n    }\n\n    function transferBackToUser (address _receiver, uint _amount) public onlyPeerToPeerLendingContract {\n        _transfer(peerToPeerLendingContractAddress, _receiver, _amount);\n    }\n\n    function transferToPeerToPeerLendingContract (address _sender, uint _amount) public onlyPeerToPeerLendingContract {\n        _transfer(_sender, peerToPeerLendingContractAddress, _amount);\n    }\n\n}",
  "sourcePath": "/Users/trangiang/Desktop/P2pLending/contracts/GCoin.sol",
  "compiler": {
    "name": "solc",
    "version": "0.7.6+commit.7338295f.Emscripten.clang"
  },
  "schemaVersion": "3.3.4",
  "updatedAt": "2021-04-12T15:37:32.090Z",
  "networkType": "ethereum",
  "devdoc": {
    "kind": "dev",
    "methods": {},
    "version": 1
  },
  "userdoc": {
    "kind": "user",
    "methods": {},
    "version": 1
  }
}