{
  "contractName": "GCoin",
  "abi": [
    {
      "inputs": [],
      "stateMutability": "nonpayable",
      "type": "constructor"
    },
    {
      "anonymous": false,
      "inputs": [
        {
          "indexed": false,
          "internalType": "address",
          "name": "_receiver",
          "type": "address"
        },
        {
          "indexed": false,
          "internalType": "uint256",
          "name": "_amount",
          "type": "uint256"
        }
      ],
      "name": "TokenSold",
      "type": "event"
    },
    {
      "anonymous": false,
      "inputs": [
        {
          "indexed": false,
          "internalType": "address",
          "name": "_sender",
          "type": "address"
        },
        {
          "indexed": false,
          "internalType": "address",
          "name": "_receiver",
          "type": "address"
        },
        {
          "indexed": false,
          "internalType": "uint256",
          "name": "_amount",
          "type": "uint256"
        }
      ],
      "name": "hasTransfer",
      "type": "event"
    },
    {
      "inputs": [],
      "name": "decimal",
      "outputs": [
        {
          "internalType": "uint256",
          "name": "",
          "type": "uint256"
        }
      ],
      "stateMutability": "view",
      "type": "function",
      "constant": true
    },
    {
      "inputs": [],
      "name": "owner",
      "outputs": [
        {
          "internalType": "address",
          "name": "",
          "type": "address"
        }
      ],
      "stateMutability": "view",
      "type": "function",
      "constant": true
    },
    {
      "inputs": [],
      "name": "peerToPeerLendingContractAddress",
      "outputs": [
        {
          "internalType": "address",
          "name": "",
          "type": "address"
        }
      ],
      "stateMutability": "view",
      "type": "function",
      "constant": true
    },
    {
      "inputs": [],
      "name": "symbol",
      "outputs": [
        {
          "internalType": "string",
          "name": "",
          "type": "string"
        }
      ],
      "stateMutability": "view",
      "type": "function",
      "constant": true
    },
    {
      "inputs": [
        {
          "internalType": "address",
          "name": "_receiver",
          "type": "address"
        },
        {
          "internalType": "uint256",
          "name": "_amount",
          "type": "uint256"
        }
      ],
      "name": "mint",
      "outputs": [],
      "stateMutability": "nonpayable",
      "type": "function"
    },
    {
      "inputs": [
        {
          "internalType": "address",
          "name": "_receiver",
          "type": "address"
        },
        {
          "internalType": "uint256",
          "name": "_amount",
          "type": "uint256"
        }
      ],
      "name": "send",
      "outputs": [],
      "stateMutability": "nonpayable",
      "type": "function"
    },
    {
      "inputs": [
        {
          "internalType": "address",
          "name": "_sender",
          "type": "address"
        }
      ],
      "name": "getBalance",
      "outputs": [
        {
          "internalType": "uint256",
          "name": "",
          "type": "uint256"
        }
      ],
      "stateMutability": "view",
      "type": "function",
      "constant": true
    },
    {
      "inputs": [
        {
          "internalType": "address",
          "name": "_receiver",
          "type": "address"
        },
        {
          "internalType": "uint256",
          "name": "_amount",
          "type": "uint256"
        }
      ],
      "name": "transferBackToUser",
      "outputs": [],
      "stateMutability": "nonpayable",
      "type": "function"
    },
    {
      "inputs": [
        {
          "internalType": "address",
          "name": "_sender",
          "type": "address"
        },
        {
          "internalType": "uint256",
          "name": "_amount",
          "type": "uint256"
        }
      ],
      "name": "transferToPeerToPeerLendingContract",
      "outputs": [],
      "stateMutability": "nonpayable",
      "type": "function"
    },
    {
      "inputs": [],
      "name": "buyToken",
      "outputs": [],
      "stateMutability": "payable",
      "type": "function",
      "payable": true
    }
  ],
  "bytecode": "0x60806040526040518060400160405280600581526020017f47434f494e0000000000000000000000000000000000000000000000000000008152506001908051906020019061004f9291906100a8565b50600660025534801561006157600080fd5b5033600360006101000a81548173ffffffffffffffffffffffffffffffffffffffff021916908373ffffffffffffffffffffffffffffffffffffffff160217905550610153565b828054600181600116156101000203166002900490600052602060002090601f0160209004810192826100de5760008555610125565b82601f106100f757805160ff1916838001178555610125565b82800160010185558215610125579182015b82811115610124578251825591602001919060010190610109565b5b5090506101329190610136565b5090565b5b8082111561014f576000816000905550600101610137565b5090565b610bb4806101626000396000f3fe6080604052600436106100915760003560e01c80638da5cb5b116100595780638da5cb5b1461021357806395d89b4114610254578063a4821719146102e4578063d0679d34146102ee578063f8b2cb4f1461034957610091565b80632cf9954b1461009657806340c10f19146100f15780634342c5a71461014c5780637107cc9d1461018d57806376809ce3146101e8575b600080fd5b3480156100a257600080fd5b506100ef600480360360408110156100b957600080fd5b81019080803573ffffffffffffffffffffffffffffffffffffffff169060200190929190803590602001909291905050506103ae565b005b3480156100fd57600080fd5b5061014a6004803603604081101561011457600080fd5b81019080803573ffffffffffffffffffffffffffffffffffffffff169060200190929190803590602001909291905050506104a2565b005b34801561015857600080fd5b506101616105fc565b604051808273ffffffffffffffffffffffffffffffffffffffff16815260200191505060405180910390f35b34801561019957600080fd5b506101e6600480360360408110156101b057600080fd5b81019080803573ffffffffffffffffffffffffffffffffffffffff16906020019092919080359060200190929190505050610622565b005b3480156101f457600080fd5b506101fd610716565b6040518082815260200191505060405180910390f35b34801561021f57600080fd5b5061022861071c565b604051808273ffffffffffffffffffffffffffffffffffffffff16815260200191505060405180910390f35b34801561026057600080fd5b50610269610742565b6040518080602001828103825283818151815260200191508051906020019080838360005b838110156102a957808201518184015260208101905061028e565b50505050905090810190601f1680156102d65780820380516001836020036101000a031916815260200191505b509250505060405180910390f35b6102ec6107e0565b005b3480156102fa57600080fd5b506103476004803603604081101561031157600080fd5b81019080803573ffffffffffffffffffffffffffffffffffffffff16906020019092919080359060200190929190505050610947565b005b34801561035557600080fd5b506103986004803603602081101561036c57600080fd5b81019080803573ffffffffffffffffffffffffffffffffffffffff169060200190929190505050610956565b6040518082815260200191505060405180910390f35b3373ffffffffffffffffffffffffffffffffffffffff16600460009054906101000a900473ffffffffffffffffffffffffffffffffffffffff1673ffffffffffffffffffffffffffffffffffffffff1614610471576040517f08c379a000000000000000000000000000000000000000000000000000000000815260040180806020018281038252601f8152602001807f4f6e6c792050656572546f506565724c656e64696e67436f6e7472616374200081525060200191505060405180910390fd5b61049e82600460009054906101000a900473ffffffffffffffffffffffffffffffffffffffff168361099e565b5050565b3373ffffffffffffffffffffffffffffffffffffffff16600360009054906101000a900473ffffffffffffffffffffffffffffffffffffffff1673ffffffffffffffffffffffffffffffffffffffff1614610565576040517f08c379a00000000000000000000000000000000000000000000000000000000081526004018080602001828103825260138152602001807f4f6e6c79206f776e65722063616e2063616c6c0000000000000000000000000081525060200191505060405180910390fd5b6105b6816000808573ffffffffffffffffffffffffffffffffffffffff1673ffffffffffffffffffffffffffffffffffffffff16815260200190815260200160002054610b6290919063ffffffff16565b6000808473ffffffffffffffffffffffffffffffffffffffff1673ffffffffffffffffffffffffffffffffffffffff168152602001908152602001600020819055505050565b600460009054906101000a900473ffffffffffffffffffffffffffffffffffffffff1681565b3373ffffffffffffffffffffffffffffffffffffffff16600460009054906101000a900473ffffffffffffffffffffffffffffffffffffffff1673ffffffffffffffffffffffffffffffffffffffff16146106e5576040517f08c379a000000000000000000000000000000000000000000000000000000000815260040180806020018281038252601f8152602001807f4f6e6c792050656572546f506565724c656e64696e67436f6e7472616374200081525060200191505060405180910390fd5b610712600460009054906101000a900473ffffffffffffffffffffffffffffffffffffffff16838361099e565b5050565b60025481565b600360009054906101000a900473ffffffffffffffffffffffffffffffffffffffff1681565b60018054600181600116156101000203166002900480601f0160208091040260200160405190810160405280929190818152602001828054600181600116156101000203166002900480156107d85780601f106107ad576101008083540402835291602001916107d8565b820191906000526020600020905b8154815290600101906020018083116107bb57829003601f168201915b505050505081565b60003411610856576040517f08c379a000000000000000000000000000000000000000000000000000000000815260040180806020018281038252600d8152602001807f53656e6420736f6d65206574680000000000000000000000000000000000000081525060200191505060405180910390fd5b600064e8d4a51000606434028161086957fe5b049050806000803373ffffffffffffffffffffffffffffffffffffffff1673ffffffffffffffffffffffffffffffffffffffff16815260200190815260200160002054016000803373ffffffffffffffffffffffffffffffffffffffff1673ffffffffffffffffffffffffffffffffffffffff168152602001908152602001600020819055507ffe2ff4cf36ff7d2c2b06eb960897ee0d76d9c3e58da12feb7b93e86b226dd3443382604051808373ffffffffffffffffffffffffffffffffffffffff1681526020018281526020019250505060405180910390a150565b61095233838361099e565b5050565b60008060008373ffffffffffffffffffffffffffffffffffffffff1673ffffffffffffffffffffffffffffffffffffffff168152602001908152602001600020549050919050565b806000808573ffffffffffffffffffffffffffffffffffffffff1673ffffffffffffffffffffffffffffffffffffffff168152602001908152602001600020541015610a52576040517f08c379a00000000000000000000000000000000000000000000000000000000081526004018080602001828103825260108152602001807f4e6f7420656e6f756768206d6f6e65790000000000000000000000000000000081525060200191505060405180910390fd5b806000808573ffffffffffffffffffffffffffffffffffffffff1673ffffffffffffffffffffffffffffffffffffffff16815260200190815260200160002060008282540392505081905550806000808473ffffffffffffffffffffffffffffffffffffffff1673ffffffffffffffffffffffffffffffffffffffff168152602001908152602001600020600082825401925050819055507f70021d1c9a2ebea52149174a62198427b896a1d193ebd19a4388f33b1f05ac75838383604051808473ffffffffffffffffffffffffffffffffffffffff1681526020018373ffffffffffffffffffffffffffffffffffffffff168152602001828152602001935050505060405180910390a1505050565b600080828401905083811015610b7457fe5b809150509291505056fea2646970667358221220e6b3a613cddd9b9c1f4801567e0a6f1c1ab845fa8a2935ebb3a03f8d19fabf1464736f6c63430007060033",
  "immutableReferences": {},
  "source": "pragma solidity >= 0.7.0 <= 0.8.0;\n\nimport './DoMath.sol';\nimport './Ownable.sol';\ncontract GCoin {\n    using DoMath for uint;\n\n    mapping (address => uint) balances;\n    string public symbol = 'GCOIN';\n    uint public decimal = 6;\n    address public owner;\n    address public peerToPeerLendingContractAddress;\n    \n    constructor() public {\n        owner = msg.sender;\n    }\n\n    event hasTransfer (address _sender, address _receiver, uint _amount);\n    event TokenSold(address _receiver, uint _amount);\n\n    modifier onlyOwner () {\n        require(owner == msg.sender,'Only owner can call');\n        _;\n    }\n\n    modifier onlyPeerToPeerLendingContract () {\n        require(peerToPeerLendingContractAddress == msg.sender, 'Only PeerToPeerLendingContract ');\n        _;\n    }\n\n    function mint (address _receiver, uint _amount) public onlyOwner {\n        balances[_receiver] = balances[_receiver].add(_amount);\n    }\n\n    function send(address _receiver, uint _amount) public {\n        _transfer(msg.sender, _receiver, _amount);\n    }\n\n    function getBalance (address _sender) public view returns (uint) {\n        return balances[_sender];\n    }\n\n    function _transfer (address _sender, address _receiver, uint _amount) private {\n        require(balances[_sender] >= _amount, 'Not enough money');\n        balances[_sender] -= _amount;\n        balances[_receiver] += _amount;\n        emit hasTransfer(_sender, _receiver, _amount);\n    }\n\n    function transferBackToUser (address _receiver, uint _amount) public onlyPeerToPeerLendingContract {\n        _transfer(peerToPeerLendingContractAddress, _receiver, _amount);\n    }\n\n    function transferToPeerToPeerLendingContract (address _sender, uint _amount) public onlyPeerToPeerLendingContract {\n        _transfer(_sender, peerToPeerLendingContractAddress, _amount);\n    }\n\n     function buyToken() public payable {\n        //msg.value ether = wei = 1e18\n        //1e6\n        require(msg.value > 0, 'Send some eth');\n        uint receive_token = msg.value*100/10**12;\n        balances[msg.sender] =  balances[msg.sender] + receive_token;\n        emit TokenSold(msg.sender, receive_token);\n    }\n}",
  "sourcePath": "/Users/trangiang/Desktop/P2pLending/contracts/GCoin.sol",
  "compiler": {
    "name": "solc",
    "version": "0.7.6+commit.7338295f.Emscripten.clang"
  },
  "schemaVersion": "3.3.4",
  "updatedAt": "2021-04-11T16:33:36.530Z",
  "networkType": "ethereum",
  "devdoc": {
    "kind": "dev",
    "methods": {},
    "version": 1
  },
  "userdoc": {
    "kind": "user",
    "methods": {},
    "version": 1
  }
}