{
  "contractName": "PeerToPeerLendingContract",
  "abi": [
    {
      "inputs": [
        {
          "internalType": "address",
          "name": "_addressContract",
          "type": "address"
        }
      ],
      "stateMutability": "nonpayable",
      "type": "constructor"
    },
    {
      "anonymous": false,
      "inputs": [
        {
          "indexed": false,
          "internalType": "uint256",
          "name": "_id",
          "type": "uint256"
        }
      ],
      "name": "LendOfferCreated",
      "type": "event"
    },
    {
      "anonymous": false,
      "inputs": [
        {
          "indexed": true,
          "internalType": "address",
          "name": "previousOwner",
          "type": "address"
        },
        {
          "indexed": true,
          "internalType": "address",
          "name": "newOwner",
          "type": "address"
        }
      ],
      "name": "OwnershipTransferred",
      "type": "event"
    },
    {
      "anonymous": false,
      "inputs": [
        {
          "indexed": false,
          "internalType": "address",
          "name": "_sender",
          "type": "address"
        }
      ],
      "name": "getSender",
      "type": "event"
    },
    {
      "inputs": [],
      "name": "_gCoinContractAddress",
      "outputs": [
        {
          "internalType": "address",
          "name": "",
          "type": "address"
        }
      ],
      "stateMutability": "view",
      "type": "function",
      "constant": true
    },
    {
      "inputs": [
        {
          "internalType": "address",
          "name": "",
          "type": "address"
        }
      ],
      "name": "balances",
      "outputs": [
        {
          "internalType": "uint256",
          "name": "",
          "type": "uint256"
        }
      ],
      "stateMutability": "view",
      "type": "function",
      "constant": true
    },
    {
      "inputs": [],
      "name": "lender",
      "outputs": [
        {
          "internalType": "address",
          "name": "",
          "type": "address"
        }
      ],
      "stateMutability": "view",
      "type": "function",
      "constant": true
    },
    {
      "inputs": [
        {
          "internalType": "uint256",
          "name": "",
          "type": "uint256"
        }
      ],
      "name": "lendingContracts",
      "outputs": [
        {
          "internalType": "string",
          "name": "_descriptionContract",
          "type": "string"
        },
        {
          "internalType": "uint256",
          "name": "_amount",
          "type": "uint256"
        },
        {
          "internalType": "uint256",
          "name": "_exchangeRate",
          "type": "uint256"
        },
        {
          "internalType": "uint256",
          "name": "_interest",
          "type": "uint256"
        },
        {
          "internalType": "uint256",
          "name": "_requestedDate",
          "type": "uint256"
        },
        {
          "internalType": "uint256",
          "name": "_lastRepaymentDate",
          "type": "uint256"
        },
        {
          "internalType": "bool",
          "name": "_isExpried",
          "type": "bool"
        },
        {
          "internalType": "address",
          "name": "_creator",
          "type": "address"
        }
      ],
      "stateMutability": "view",
      "type": "function",
      "constant": true
    },
    {
      "inputs": [],
      "name": "owner",
      "outputs": [
        {
          "internalType": "address",
          "name": "",
          "type": "address"
        }
      ],
      "stateMutability": "view",
      "type": "function",
      "constant": true
    },
    {
      "inputs": [],
      "name": "renounceOwnership",
      "outputs": [],
      "stateMutability": "nonpayable",
      "type": "function"
    },
    {
      "inputs": [
        {
          "internalType": "address",
          "name": "newOwner",
          "type": "address"
        }
      ],
      "name": "transferOwnership",
      "outputs": [],
      "stateMutability": "nonpayable",
      "type": "function"
    },
    {
      "inputs": [
        {
          "internalType": "address",
          "name": "_sender",
          "type": "address"
        }
      ],
      "name": "getBalance",
      "outputs": [
        {
          "internalType": "uint256",
          "name": "",
          "type": "uint256"
        }
      ],
      "stateMutability": "view",
      "type": "function",
      "constant": true
    },
    {
      "inputs": [
        {
          "internalType": "uint256",
          "name": "_id",
          "type": "uint256"
        }
      ],
      "name": "getLendingContractCount",
      "outputs": [
        {
          "internalType": "uint256",
          "name": "",
          "type": "uint256"
        },
        {
          "internalType": "uint256",
          "name": "",
          "type": "uint256"
        },
        {
          "internalType": "uint256",
          "name": "",
          "type": "uint256"
        },
        {
          "internalType": "uint256",
          "name": "",
          "type": "uint256"
        },
        {
          "internalType": "uint256",
          "name": "",
          "type": "uint256"
        },
        {
          "internalType": "bool",
          "name": "",
          "type": "bool"
        },
        {
          "internalType": "address",
          "name": "",
          "type": "address"
        }
      ],
      "stateMutability": "view",
      "type": "function",
      "constant": true
    },
    {
      "inputs": [
        {
          "internalType": "string",
          "name": "_decription_contract",
          "type": "string"
        },
        {
          "internalType": "uint256",
          "name": "_amount_",
          "type": "uint256"
        },
        {
          "internalType": "uint256",
          "name": "_exchange_rate",
          "type": "uint256"
        },
        {
          "internalType": "uint256",
          "name": "_interest_",
          "type": "uint256"
        },
        {
          "internalType": "uint256",
          "name": "_duration_second",
          "type": "uint256"
        }
      ],
      "name": "createLendingOffer",
      "outputs": [
        {
          "internalType": "uint256",
          "name": "",
          "type": "uint256"
        }
      ],
      "stateMutability": "nonpayable",
      "type": "function"
    },
    {
      "inputs": [
        {
          "internalType": "uint256",
          "name": "_amount",
          "type": "uint256"
        }
      ],
      "name": "_mint",
      "outputs": [],
      "stateMutability": "nonpayable",
      "type": "function"
    }
  ],
  "bytecode": "0x608060405234801561001057600080fd5b506040516111523803806111528339818101604052602081101561003357600080fd5b8101908080519060200190929190505050600061005461013960201b60201c565b9050806000806101000a81548173ffffffffffffffffffffffffffffffffffffffff021916908373ffffffffffffffffffffffffffffffffffffffff1602179055508073ffffffffffffffffffffffffffffffffffffffff16600073ffffffffffffffffffffffffffffffffffffffff167f8be0079c531659141344cd1fd0a4f28419497f9722a3daafe3b4186f6b6457e060405160405180910390a35080600260006101000a81548173ffffffffffffffffffffffffffffffffffffffff021916908373ffffffffffffffffffffffffffffffffffffffff16021790555050610141565b600033905090565b611002806101506000396000f3fe608060405234801561001057600080fd5b50600436106100a95760003560e01c8063715018a611610071578063715018a61461034f5780638da5cb5b14610359578063b9a43d931461038d578063bcead63e14610411578063f2fde38b14610445578063f8b2cb4f14610489576100a9565b80631cf614b4146100ae57806327e235e3146101a55780632c526196146101fd5780633bcda2171461022b578063531a2a941461025f575b600080fd5b61018f600480360360a08110156100c457600080fd5b81019080803590602001906401000000008111156100e157600080fd5b8201836020820111156100f357600080fd5b8035906020019184600183028401116401000000008311171561011557600080fd5b91908080601f016020809104026020016040519081016040528093929190818152602001838380828437600081840152601f19601f820116905080830192505050505050509192919290803590602001909291908035906020019092919080359060200190929190803590602001909291905050506104e1565b6040518082815260200191505060405180910390f35b6101e7600480360360208110156101bb57600080fd5b81019080803573ffffffffffffffffffffffffffffffffffffffff169060200190929190505050610715565b6040518082815260200191505060405180910390f35b6102296004803603602081101561021357600080fd5b810190808035906020019092919050505061072d565b005b6102336108d7565b604051808273ffffffffffffffffffffffffffffffffffffffff16815260200191505060405180910390f35b61028b6004803603602081101561027557600080fd5b81019080803590602001909291905050506108fd565b604051808060200189815260200188815260200187815260200186815260200185815260200184151581526020018373ffffffffffffffffffffffffffffffffffffffff16815260200182810382528a818151815260200191508051906020019080838360005b8381101561030d5780820151818401526020810190506102f2565b50505050905090810190601f16801561033a5780820380516001836020036101000a031916815260200191505b50995050505050505050505060405180910390f35b610357610a0a565b005b610361610b77565b604051808273ffffffffffffffffffffffffffffffffffffffff16815260200191505060405180910390f35b6103b9600480360360208110156103a357600080fd5b8101908080359060200190929190505050610ba0565b6040518088815260200187815260200186815260200185815260200184815260200183151581526020018273ffffffffffffffffffffffffffffffffffffffff16815260200197505050505050505060405180910390f35b610419610c92565b604051808273ffffffffffffffffffffffffffffffffffffffff16815260200191505060405180910390f35b6104876004803603602081101561045b57600080fd5b81019080803573ffffffffffffffffffffffffffffffffffffffff169060200190929190505050610cb8565b005b6104cb6004803603602081101561049f57600080fd5b81019080803573ffffffffffffffffffffffffffffffffffffffff169060200190929190505050610eaa565b6040518082815260200191505060405180910390f35b60006104eb610ef3565b73ffffffffffffffffffffffffffffffffffffffff16610509610b77565b73ffffffffffffffffffffffffffffffffffffffff1614610592576040517f08c379a00000000000000000000000000000000000000000000000000000000081526004018080602001828103825260208152602001807f4f776e61626c653a2063616c6c6572206973206e6f7420746865206f776e657281525060200191505060405180910390fd5b60006001600081548092919060010191905055905060405180610100016040528088815260200187815260200186815260200185815260200142815260200184420181526020016000151581526020013373ffffffffffffffffffffffffffffffffffffffff1681525060056000838152602001908152602001600020600082015181600001908051906020019061062b929190610efb565b506020820151816001015560408201518160020155606082015181600301556080820151816004015560a0820151816005015560c08201518160060160006101000a81548160ff02191690831515021790555060e08201518160060160016101000a81548173ffffffffffffffffffffffffffffffffffffffff021916908373ffffffffffffffffffffffffffffffffffffffff1602179055509050506106d18661072d565b7f298b66f48bcf2d6012406d97d32d782d616fb9d956d3f1aa4027418e1ecb32ec816040518082815260200191505060405180910390a18091505095945050505050565b60046020528060005260406000206000915090505481565b610735610ef3565b73ffffffffffffffffffffffffffffffffffffffff16610753610b77565b73ffffffffffffffffffffffffffffffffffffffff16146107dc576040517f08c379a00000000000000000000000000000000000000000000000000000000081526004018080602001828103825260208152602001807f4f776e61626c653a2063616c6c6572206973206e6f7420746865206f776e657281525060200191505060405180910390fd5b7f03fba0ce0337c9515dccdc66922461e29adccd8ee23beb8c0a021041a71c35da33604051808273ffffffffffffffffffffffffffffffffffffffff16815260200191505060405180910390a1600260009054906101000a900473ffffffffffffffffffffffffffffffffffffffff1673ffffffffffffffffffffffffffffffffffffffff16632cf9954b33836040518363ffffffff1660e01b8152600401808373ffffffffffffffffffffffffffffffffffffffff16815260200182815260200192505050600060405180830381600087803b1580156108bc57600080fd5b505af11580156108d0573d6000803e3d6000fd5b5050505050565b600260009054906101000a900473ffffffffffffffffffffffffffffffffffffffff1681565b6005602052806000526040600020600091509050806000018054600181600116156101000203166002900480601f0160208091040260200160405190810160405280929190818152602001828054600181600116156101000203166002900480156109a95780601f1061097e576101008083540402835291602001916109a9565b820191906000526020600020905b81548152906001019060200180831161098c57829003601f168201915b5050505050908060010154908060020154908060030154908060040154908060050154908060060160009054906101000a900460ff16908060060160019054906101000a900473ffffffffffffffffffffffffffffffffffffffff16905088565b610a12610ef3565b73ffffffffffffffffffffffffffffffffffffffff16610a30610b77565b73ffffffffffffffffffffffffffffffffffffffff1614610ab9576040517f08c379a00000000000000000000000000000000000000000000000000000000081526004018080602001828103825260208152602001807f4f776e61626c653a2063616c6c6572206973206e6f7420746865206f776e657281525060200191505060405180910390fd5b600073ffffffffffffffffffffffffffffffffffffffff1660008054906101000a900473ffffffffffffffffffffffffffffffffffffffff1673ffffffffffffffffffffffffffffffffffffffff167f8be0079c531659141344cd1fd0a4f28419497f9722a3daafe3b4186f6b6457e060405160405180910390a360008060006101000a81548173ffffffffffffffffffffffffffffffffffffffff021916908373ffffffffffffffffffffffffffffffffffffffff160217905550565b60008060009054906101000a900473ffffffffffffffffffffffffffffffffffffffff16905090565b60008060008060008060006005600089815260200190815260200160002060010154600560008a815260200190815260200160002060020154600560008b815260200190815260200160002060030154600560008c815260200190815260200160002060040154600560008d815260200190815260200160002060050154600560008e815260200190815260200160002060060160009054906101000a900460ff16600560008f815260200190815260200160002060060160019054906101000a900473ffffffffffffffffffffffffffffffffffffffff169650965096509650965096509650919395979092949650565b600360009054906101000a900473ffffffffffffffffffffffffffffffffffffffff1681565b610cc0610ef3565b73ffffffffffffffffffffffffffffffffffffffff16610cde610b77565b73ffffffffffffffffffffffffffffffffffffffff1614610d67576040517f08c379a00000000000000000000000000000000000000000000000000000000081526004018080602001828103825260208152602001807f4f776e61626c653a2063616c6c6572206973206e6f7420746865206f776e657281525060200191505060405180910390fd5b600073ffffffffffffffffffffffffffffffffffffffff168173ffffffffffffffffffffffffffffffffffffffff161415610ded576040517f08c379a0000000000000000000000000000000000000000000000000000000008152600401808060200182810382526026815260200180610fa76026913960400191505060405180910390fd5b8073ffffffffffffffffffffffffffffffffffffffff1660008054906101000a900473ffffffffffffffffffffffffffffffffffffffff1673ffffffffffffffffffffffffffffffffffffffff167f8be0079c531659141344cd1fd0a4f28419497f9722a3daafe3b4186f6b6457e060405160405180910390a3806000806101000a81548173ffffffffffffffffffffffffffffffffffffffff021916908373ffffffffffffffffffffffffffffffffffffffff16021790555050565b6000600460008373ffffffffffffffffffffffffffffffffffffffff1673ffffffffffffffffffffffffffffffffffffffff168152602001908152602001600020549050919050565b600033905090565b828054600181600116156101000203166002900490600052602060002090601f016020900481019282610f315760008555610f78565b82601f10610f4a57805160ff1916838001178555610f78565b82800160010185558215610f78579182015b82811115610f77578251825591602001919060010190610f5c565b5b509050610f859190610f89565b5090565b5b80821115610fa2576000816000905550600101610f8a565b509056fe4f776e61626c653a206e6577206f776e657220697320746865207a65726f2061646472657373a264697066735822122003a9918e105de95020fe276227c28666720a90875645ca1ab477c0fa50860f2664736f6c63430007060033",
  "immutableReferences": {},
  "source": "pragma solidity >= 0.7.0 <= 0.8.0;\n\nimport './DoMath.sol';\nimport \"./Ownable.sol\";\nimport './IGCoin.sol';\ncontract PeerToPeerLendingContract  is Ownable{\n    using DoMath for uint;\n\n    uint private lendingContractId ;\n    address public _gCoinContractAddress;\n    constructor (address _addressContract) {\n        _gCoinContractAddress = _addressContract ;\n    }\n    address public lender;\n\n    struct LendingContract {\n        string _descriptionContract;\n        uint _amount;\n        uint _exchangeRate;\n        uint _interest;\n        uint _requestedDate;\n        uint _lastRepaymentDate;\n        bool _isExpried;\n        address _creator;\n    }\n\n    modifier onlyLender () {\n        lender = msg.sender;\n        _;\n    }\n    mapping (address => uint)  public balances;\n\n    mapping (uint => LendingContract)  public  lendingContracts;\n\n    event LendOfferCreated (uint _id);\n    event getSender(address _sender);\n\n    function getBalance (address _sender) public view returns (uint) {\n        return balances[_sender];\n    }\n\n    function getLendingContractCount (uint _id) public view returns (\n        uint,\n        uint,\n        uint,\n        uint,\n        uint,\n        bool,\n        address\n        ) {\n        return \n        (        \n                lendingContracts[_id]._amount,\n                lendingContracts[_id]._exchangeRate,\n                lendingContracts[_id]._interest,\n                lendingContracts[_id]._requestedDate,\n                lendingContracts[_id]._lastRepaymentDate,\n                lendingContracts[_id]._isExpried,\n                lendingContracts[_id]._creator\n        );\n    }\n\n    function createLendingOffer (\n        string memory _decription_contract,\n        uint _amount_,\n        uint _exchange_rate,\n        uint _interest_,\n        uint _duration_second\n        ) public onlyOwner returns (uint){\n            uint _id = lendingContractId++;\n            lendingContracts[_id] = LendingContract ({\n                _descriptionContract : _decription_contract,\n                _amount : _amount_,\n                _exchangeRate : _exchange_rate,\n                _interest : _interest_,\n                _requestedDate : block.timestamp,\n                _lastRepaymentDate: block.timestamp + _duration_second,\n                _creator : msg.sender,\n                _isExpried : false\n            });\n           _mint(_amount_);\n            emit LendOfferCreated(_id);\n            return _id;\n        }\n\n    function _mint (uint _amount) public onlyOwner {\n        emit getSender(msg.sender);\n        IGCoin(_gCoinContractAddress).transferToPeerToPeerLendingContract(msg.sender, _amount);\n    }    \n    \n}",
  "sourcePath": "/Users/trangiang/Desktop/P2pLending/contracts/PeerToPeerLendingContract.sol",
  "compiler": {
    "name": "solc",
    "version": "0.7.6+commit.7338295f.Emscripten.clang"
  },
  "schemaVersion": "3.3.4",
  "updatedAt": "2021-04-11T16:33:36.527Z",
  "networkType": "ethereum",
  "devdoc": {
    "kind": "dev",
    "methods": {
      "owner()": {
        "details": "Returns the address of the current owner."
      },
      "renounceOwnership()": {
        "details": "Leaves the contract without owner. It will not be possible to call `onlyOwner` functions anymore. Can only be called by the current owner. NOTE: Renouncing ownership will leave the contract without an owner, thereby removing any functionality that is only available to the owner."
      },
      "transferOwnership(address)": {
        "details": "Transfers ownership of the contract to a new account (`newOwner`). Can only be called by the current owner."
      }
    },
    "version": 1
  },
  "userdoc": {
    "kind": "user",
    "methods": {},
    "version": 1
  }
}