{
  "contractName": "PeerToPeerLendingContract",
  "abi": [
    {
      "inputs": [
        {
          "internalType": "address",
          "name": "_addressContract",
          "type": "address"
        }
      ],
      "stateMutability": "nonpayable",
      "type": "constructor"
    },
    {
      "anonymous": false,
      "inputs": [
        {
          "indexed": false,
          "internalType": "uint256",
          "name": "_id",
          "type": "uint256"
        },
        {
          "indexed": false,
          "internalType": "uint256",
          "name": "_amount",
          "type": "uint256"
        },
        {
          "indexed": false,
          "internalType": "uint256",
          "name": "_ltvRate",
          "type": "uint256"
        },
        {
          "indexed": false,
          "internalType": "uint256",
          "name": "_amountETH",
          "type": "uint256"
        },
        {
          "indexed": false,
          "internalType": "address",
          "name": "_creator",
          "type": "address"
        }
      ],
      "name": "LendOfferCreated",
      "type": "event"
    },
    {
      "anonymous": false,
      "inputs": [
        {
          "indexed": false,
          "internalType": "uint256",
          "name": "_id",
          "type": "uint256"
        },
        {
          "indexed": false,
          "internalType": "address",
          "name": "_borrower",
          "type": "address"
        },
        {
          "indexed": false,
          "internalType": "uint256",
          "name": "_amountETH",
          "type": "uint256"
        },
        {
          "indexed": false,
          "internalType": "uint256",
          "name": "_loanExpDate",
          "type": "uint256"
        }
      ],
      "name": "OfferActive",
      "type": "event"
    },
    {
      "anonymous": false,
      "inputs": [
        {
          "indexed": false,
          "internalType": "uint256",
          "name": "_id",
          "type": "uint256"
        },
        {
          "indexed": false,
          "internalType": "uint256",
          "name": "_total",
          "type": "uint256"
        }
      ],
      "name": "OfferRepaid",
      "type": "event"
    },
    {
      "anonymous": false,
      "inputs": [
        {
          "indexed": true,
          "internalType": "address",
          "name": "previousOwner",
          "type": "address"
        },
        {
          "indexed": true,
          "internalType": "address",
          "name": "newOwner",
          "type": "address"
        }
      ],
      "name": "OwnershipTransferred",
      "type": "event"
    },
    {
      "inputs": [],
      "name": "_gCoinContractAddress",
      "outputs": [
        {
          "internalType": "address",
          "name": "",
          "type": "address"
        }
      ],
      "stateMutability": "view",
      "type": "function",
      "constant": true
    },
    {
      "inputs": [],
      "name": "gcoin",
      "outputs": [
        {
          "internalType": "contract GCoin",
          "name": "",
          "type": "address"
        }
      ],
      "stateMutability": "view",
      "type": "function",
      "constant": true
    },
    {
      "inputs": [],
      "name": "lender",
      "outputs": [
        {
          "internalType": "address",
          "name": "",
          "type": "address"
        }
      ],
      "stateMutability": "view",
      "type": "function",
      "constant": true
    },
    {
      "inputs": [
        {
          "internalType": "uint256",
          "name": "",
          "type": "uint256"
        }
      ],
      "name": "lendingContracts",
      "outputs": [
        {
          "internalType": "uint256",
          "name": "_amount",
          "type": "uint256"
        },
        {
          "internalType": "uint256",
          "name": "_ltvRate",
          "type": "uint256"
        },
        {
          "internalType": "uint256",
          "name": "_dailyInterest",
          "type": "uint256"
        },
        {
          "internalType": "uint256",
          "name": "_amountETH",
          "type": "uint256"
        },
        {
          "internalType": "uint256",
          "name": "_loanDate",
          "type": "uint256"
        },
        {
          "internalType": "uint256",
          "name": "_durationDate",
          "type": "uint256"
        },
        {
          "internalType": "bool",
          "name": "_isExpried",
          "type": "bool"
        },
        {
          "internalType": "address",
          "name": "_creator",
          "type": "address"
        },
        {
          "internalType": "address",
          "name": "_borrower",
          "type": "address"
        },
        {
          "internalType": "bool",
          "name": "_isActive",
          "type": "bool"
        },
        {
          "internalType": "uint256",
          "name": "_loanOutOfDate",
          "type": "uint256"
        },
        {
          "internalType": "bool",
          "name": "_isRepay",
          "type": "bool"
        }
      ],
      "stateMutability": "view",
      "type": "function",
      "constant": true
    },
    {
      "inputs": [],
      "name": "owner",
      "outputs": [
        {
          "internalType": "address",
          "name": "",
          "type": "address"
        }
      ],
      "stateMutability": "view",
      "type": "function",
      "constant": true
    },
    {
      "inputs": [],
      "name": "renounceOwnership",
      "outputs": [],
      "stateMutability": "nonpayable",
      "type": "function"
    },
    {
      "inputs": [
        {
          "internalType": "address",
          "name": "newOwner",
          "type": "address"
        }
      ],
      "name": "transferOwnership",
      "outputs": [],
      "stateMutability": "nonpayable",
      "type": "function"
    },
    {
      "inputs": [
        {
          "internalType": "uint256",
          "name": "_id",
          "type": "uint256"
        }
      ],
      "name": "getLendingContractCount",
      "outputs": [
        {
          "internalType": "uint256",
          "name": "",
          "type": "uint256"
        },
        {
          "internalType": "uint256",
          "name": "",
          "type": "uint256"
        },
        {
          "internalType": "uint256",
          "name": "",
          "type": "uint256"
        },
        {
          "internalType": "uint256",
          "name": "",
          "type": "uint256"
        },
        {
          "internalType": "uint256",
          "name": "",
          "type": "uint256"
        },
        {
          "internalType": "bool",
          "name": "",
          "type": "bool"
        },
        {
          "internalType": "address",
          "name": "",
          "type": "address"
        }
      ],
      "stateMutability": "view",
      "type": "function",
      "constant": true
    },
    {
      "inputs": [
        {
          "internalType": "uint256",
          "name": "_amount_",
          "type": "uint256"
        },
        {
          "internalType": "uint256",
          "name": "_ltvRate_",
          "type": "uint256"
        },
        {
          "internalType": "uint256",
          "name": "_dailyInterest_",
          "type": "uint256"
        },
        {
          "internalType": "uint256",
          "name": "_duration_",
          "type": "uint256"
        }
      ],
      "name": "createLendingOffer",
      "outputs": [
        {
          "internalType": "uint256",
          "name": "",
          "type": "uint256"
        }
      ],
      "stateMutability": "nonpayable",
      "type": "function"
    },
    {
      "inputs": [
        {
          "internalType": "uint256",
          "name": "_id",
          "type": "uint256"
        }
      ],
      "name": "borrowed",
      "outputs": [],
      "stateMutability": "payable",
      "type": "function",
      "payable": true
    },
    {
      "inputs": [
        {
          "internalType": "uint256",
          "name": "_id",
          "type": "uint256"
        }
      ],
      "name": "repay",
      "outputs": [],
      "stateMutability": "nonpayable",
      "type": "function"
    }
  ],
  "bytecode": "0x608060405234801561001057600080fd5b5060405161177d38038061177d8339818101604052602081101561003357600080fd5b8101908080519060200190929190505050600061005461013960201b60201c565b9050806000806101000a81548173ffffffffffffffffffffffffffffffffffffffff021916908373ffffffffffffffffffffffffffffffffffffffff1602179055508073ffffffffffffffffffffffffffffffffffffffff16600073ffffffffffffffffffffffffffffffffffffffff167f8be0079c531659141344cd1fd0a4f28419497f9722a3daafe3b4186f6b6457e060405160405180910390a35080600260006101000a81548173ffffffffffffffffffffffffffffffffffffffff021916908373ffffffffffffffffffffffffffffffffffffffff16021790555050610141565b600033905090565b61162d806101506000396000f3fe60806040526004361061009c5760003560e01c80638da5cb5b116100645780638da5cb5b14610243578063b9a43d9314610284578063bcead63e14610315578063f2fde38b14610356578063f5189ee3146103a7578063f8e6cbb4146103d55761009c565b8063371fd8e6146100a15780633bcda217146100dc578063531a2a941461011d578063715018a6146101eb5780638c9c115814610202575b600080fd5b3480156100ad57600080fd5b506100da600480360360208110156100c457600080fd5b8101908080359060200190929190505050610442565b005b3480156100e857600080fd5b506100f16108ec565b604051808273ffffffffffffffffffffffffffffffffffffffff16815260200191505060405180910390f35b34801561012957600080fd5b506101566004803603602081101561014057600080fd5b8101908080359060200190929190505050610912565b604051808d81526020018c81526020018b81526020018a815260200189815260200188815260200187151581526020018673ffffffffffffffffffffffffffffffffffffffff1681526020018573ffffffffffffffffffffffffffffffffffffffff168152602001841515815260200183815260200182151581526020019c5050505050505050505050505060405180910390f35b3480156101f757600080fd5b506102006109d9565b005b34801561020e57600080fd5b50610217610b46565b604051808273ffffffffffffffffffffffffffffffffffffffff16815260200191505060405180910390f35b34801561024f57600080fd5b50610258610b6c565b604051808273ffffffffffffffffffffffffffffffffffffffff16815260200191505060405180910390f35b34801561029057600080fd5b506102bd600480360360208110156102a757600080fd5b8101908080359060200190929190505050610b95565b6040518088815260200187815260200186815260200185815260200184815260200183151581526020018273ffffffffffffffffffffffffffffffffffffffff16815260200197505050505050505060405180910390f35b34801561032157600080fd5b5061032a610c87565b604051808273ffffffffffffffffffffffffffffffffffffffff16815260200191505060405180910390f35b34801561036257600080fd5b506103a56004803603602081101561037957600080fd5b81019080803573ffffffffffffffffffffffffffffffffffffffff169060200190929190505050610cad565b005b6103d3600480360360208110156103bd57600080fd5b8101908080359060200190929190505050610e9f565b005b3480156103e157600080fd5b5061042c600480360360808110156103f857600080fd5b810190808035906020019092919080359060200190929190803590602001909291908035906020019092919050505061116d565b6040518082815260200191505060405180910390f35b60006005600083815260200190815260200160002090508060070160009054906101000a900473ffffffffffffffffffffffffffffffffffffffff1673ffffffffffffffffffffffffffffffffffffffff163373ffffffffffffffffffffffffffffffffffffffff161461051e576040517f08c379a00000000000000000000000000000000000000000000000000000000081526004018080602001828103825260148152602001807f596f7520617265206e6f7420626f72726f77657200000000000000000000000081525060200191505060405180910390fd5b600015158160090160009054906101000a900460ff161515146105a9576040517f08c379a00000000000000000000000000000000000000000000000000000000081526004018080602001828103825260118152602001807f4f6666657220697320726570617965642000000000000000000000000000000081525060200191505060405180910390fd5b6000806105d8620151806105ca85600401544261154690919063ffffffff16565b61155d90919063ffffffff16565b905082600801548110156106715760006106286106036064866000015461155d90919063ffffffff16565b61061a86600201548561157690919063ffffffff16565b61157690919063ffffffff16565b9050600061065760056106496064886000015461155d90919063ffffffff16565b61157690919063ffffffff16565b905061066c81836115ad90919063ffffffff16565b935050505b6106b161068c6064856000015461155d90919063ffffffff16565b6106a385600201548461157690919063ffffffff16565b61157690919063ffffffff16565b915060016005600086815260200190815260200160002060090160006101000a81548160ff021916908315150217905550600260009054906101000a900473ffffffffffffffffffffffffffffffffffffffff1673ffffffffffffffffffffffffffffffffffffffff16632cf9954b33846040518363ffffffff1660e01b8152600401808373ffffffffffffffffffffffffffffffffffffffff16815260200182815260200192505050600060405180830381600087803b15801561077557600080fd5b505af1158015610789573d6000803e3d6000fd5b50505050600260009054906101000a900473ffffffffffffffffffffffffffffffffffffffff1673ffffffffffffffffffffffffffffffffffffffff16637107cc9d8460060160019054906101000a900473ffffffffffffffffffffffffffffffffffffffff16846040518363ffffffff1660e01b8152600401808373ffffffffffffffffffffffffffffffffffffffff16815260200182815260200192505050600060405180830381600087803b15801561084457600080fd5b505af1158015610858573d6000803e3d6000fd5b505050503373ffffffffffffffffffffffffffffffffffffffff166108fc84600301549081150290604051600060405180830381858888f193505050501580156108a6573d6000803e3d6000fd5b507fe9511a83c887aef62f71de75dfac47573691b453a0501bc50186e6d5cbd3a8a98483604051808381526020018281526020019250505060405180910390a150505050565b600260009054906101000a900473ffffffffffffffffffffffffffffffffffffffff1681565b60056020528060005260406000206000915090508060000154908060010154908060020154908060030154908060040154908060050154908060060160009054906101000a900460ff16908060060160019054906101000a900473ffffffffffffffffffffffffffffffffffffffff16908060070160009054906101000a900473ffffffffffffffffffffffffffffffffffffffff16908060070160149054906101000a900460ff16908060080154908060090160009054906101000a900460ff1690508c565b6109e16115c9565b73ffffffffffffffffffffffffffffffffffffffff166109ff610b6c565b73ffffffffffffffffffffffffffffffffffffffff1614610a88576040517f08c379a00000000000000000000000000000000000000000000000000000000081526004018080602001828103825260208152602001807f4f776e61626c653a2063616c6c6572206973206e6f7420746865206f776e657281525060200191505060405180910390fd5b600073ffffffffffffffffffffffffffffffffffffffff1660008054906101000a900473ffffffffffffffffffffffffffffffffffffffff1673ffffffffffffffffffffffffffffffffffffffff167f8be0079c531659141344cd1fd0a4f28419497f9722a3daafe3b4186f6b6457e060405160405180910390a360008060006101000a81548173ffffffffffffffffffffffffffffffffffffffff021916908373ffffffffffffffffffffffffffffffffffffffff160217905550565b600360009054906101000a900473ffffffffffffffffffffffffffffffffffffffff1681565b60008060009054906101000a900473ffffffffffffffffffffffffffffffffffffffff16905090565b60008060008060008060006005600089815260200190815260200160002060000154600560008a815260200190815260200160002060010154600560008b815260200190815260200160002060020154600560008c815260200190815260200160002060040154600560008d815260200190815260200160002060080154600560008e815260200190815260200160002060060160009054906101000a900460ff16600560008f815260200190815260200160002060060160019054906101000a900473ffffffffffffffffffffffffffffffffffffffff169650965096509650965096509650919395979092949650565b600460009054906101000a900473ffffffffffffffffffffffffffffffffffffffff1681565b610cb56115c9565b73ffffffffffffffffffffffffffffffffffffffff16610cd3610b6c565b73ffffffffffffffffffffffffffffffffffffffff1614610d5c576040517f08c379a00000000000000000000000000000000000000000000000000000000081526004018080602001828103825260208152602001807f4f776e61626c653a2063616c6c6572206973206e6f7420746865206f776e657281525060200191505060405180910390fd5b600073ffffffffffffffffffffffffffffffffffffffff168173ffffffffffffffffffffffffffffffffffffffff161415610de2576040517f08c379a00000000000000000000000000000000000000000000000000000000081526004018080602001828103825260268152602001806115d26026913960400191505060405180910390fd5b8073ffffffffffffffffffffffffffffffffffffffff1660008054906101000a900473ffffffffffffffffffffffffffffffffffffffff1673ffffffffffffffffffffffffffffffffffffffff167f8be0079c531659141344cd1fd0a4f28419497f9722a3daafe3b4186f6b6457e060405160405180910390a3806000806101000a81548173ffffffffffffffffffffffffffffffffffffffff021916908373ffffffffffffffffffffffffffffffffffffffff16021790555050565b60003390506000600560008481526020019081526020016000209050600015158160070160149054906101000a900460ff16151514610f46576040517f08c379a00000000000000000000000000000000000000000000000000000000081526004018080602001828103825260138152602001807f4f666665722077617320626f72726f776564200000000000000000000000000081525060200191505060405180910390fd5b80600301543411610fbf576040517f08c379a000000000000000000000000000000000000000000000000000000000815260040180806020018281038252600e8152602001807f4e6f7420656e6f7567682045544800000000000000000000000000000000000081525060200191505060405180910390fd5b600260009054906101000a900473ffffffffffffffffffffffffffffffffffffffff1673ffffffffffffffffffffffffffffffffffffffff16632cf9954b8383600001546040518363ffffffff1660e01b8152600401808373ffffffffffffffffffffffffffffffffffffffff16815260200182815260200192505050600060405180830381600087803b15801561105657600080fd5b505af115801561106a573d6000803e3d6000fd5b5050505060018160070160146101000a81548160ff021916908315150217905550428160040181905550348160030181905550338160070160006101000a81548173ffffffffffffffffffffffffffffffffffffffff021916908373ffffffffffffffffffffffffffffffffffffffff1602179055506110f78160050154426115ad90919063ffffffff16565b81600801819055507f9482b2c5bc1ec013de1c87e912379a456554b10e3463f6da1b6f1359043615858383348460040154604051808581526020018473ffffffffffffffffffffffffffffffffffffffff16815260200183815260200182815260200194505050505060405180910390a1505050565b60006111776115c9565b73ffffffffffffffffffffffffffffffffffffffff16611195610b6c565b73ffffffffffffffffffffffffffffffffffffffff161461121e576040517f08c379a00000000000000000000000000000000000000000000000000000000081526004018080602001828103825260208152602001807f4f776e61626c653a2063616c6c6572206973206e6f7420746865206f776e657281525060200191505060405180910390fd5b6000600160008154809291906001019190505590506000611248868861155d90919063ffffffff16565b9050604051806101800160405280888152602001878152602001868152602001828152602001600081526020018581526020016000151581526020013373ffffffffffffffffffffffffffffffffffffffff1681526020013373ffffffffffffffffffffffffffffffffffffffff168152602001600115158152602001600081526020016000151581525060056000848152602001908152602001600020600082015181600001556020820151816001015560408201518160020155606082015181600301556080820151816004015560a0820151816005015560c08201518160060160006101000a81548160ff02191690831515021790555060e08201518160060160016101000a81548173ffffffffffffffffffffffffffffffffffffffff021916908373ffffffffffffffffffffffffffffffffffffffff1602179055506101008201518160070160006101000a81548173ffffffffffffffffffffffffffffffffffffffff021916908373ffffffffffffffffffffffffffffffffffffffff1602179055506101208201518160070160146101000a81548160ff02191690831515021790555061014082015181600801556101608201518160090160006101000a81548160ff0219169083151502179055509050507f6e674c229c08c45af34f62f20e2145cdeee38c8b0f36fa80b5934c7dc2de22978288888433604051808681526020018581526020018481526020018381526020018273ffffffffffffffffffffffffffffffffffffffff1681526020019550505050505060405180910390a1600260009054906101000a900473ffffffffffffffffffffffffffffffffffffffff1673ffffffffffffffffffffffffffffffffffffffff16632cf9954b33896040518363ffffffff1660e01b8152600401808373ffffffffffffffffffffffffffffffffffffffff16815260200182815260200192505050600060405180830381600087803b15801561152157600080fd5b505af1158015611535573d6000803e3d6000fd5b505050508192505050949350505050565b60008282111561155257fe5b818303905092915050565b60008082848161156957fe5b0490508091505092915050565b60008083141561158957600090506115a7565b600082840290508284828161159a57fe5b04146115a257fe5b809150505b92915050565b6000808284019050838110156115bf57fe5b8091505092915050565b60003390509056fe4f776e61626c653a206e6577206f776e657220697320746865207a65726f2061646472657373a2646970667358221220bfb9d3ee049e366117a4eb53e4b471f13ed66ecbbb0d9b7bc91d73438595169f64736f6c63430007060033",
  "immutableReferences": {},
  "source": "pragma solidity >= 0.7.0 <= 0.8.0;\n\nimport './DoMath.sol';\nimport './Ownable.sol';\nimport './IGCoin.sol';\nimport './GCoin.sol';\n\ncontract PeerToPeerLendingContract  is Ownable{\n    using DoMath for uint256;\n\n    uint256 private lendingContractId ;\n    address public _gCoinContractAddress;\n\n    constructor (address _addressContract) {\n        _gCoinContractAddress = _addressContract ;\n    }\n\n    GCoin public gcoin;\n\n    address public lender;\n\n    struct LendingContract {\n        uint256 _amount;\n        uint256 _ltvRate;\n        uint256 _dailyInterest;\n        uint256 _amountETH;\n        uint256 _loanDate;\n        uint256 _durationDate;\n        bool _isExpried;\n        address _creator;\n        address _borrower;\n        bool _isActive;\n        uint256 _loanOutOfDate;\n        bool _isRepay;\n    }\n\n    modifier onlyLender () {\n        lender = msg.sender;\n        _;\n    }\n\n    mapping (uint256 => LendingContract)  public  lendingContracts;\n\n    event LendOfferCreated(\n        uint256 _id,\n        uint256 _amount,\n        uint256 _ltvRate,\n        uint256 _amountETH,\n        address _creator\n    );\n\n    event OfferActive(\n        uint256 _id,\n        address _borrower,\n        uint256 _amountETH,\n        uint256 _loanExpDate\n    );\n\n    event OfferRepaid(uint256 _id, uint256 _total);\n\n    function getLendingContractCount (uint256 _id) public view returns (\n        uint256,\n        uint256,\n        uint256,\n        uint256,\n        uint256,\n        bool,\n        address\n        ) {\n        return \n        (        \n                lendingContracts[_id]._amount,\n                lendingContracts[_id]._ltvRate,\n                lendingContracts[_id]._dailyInterest,\n                lendingContracts[_id]._loanDate,\n                lendingContracts[_id]._loanOutOfDate,\n                lendingContracts[_id]._isExpried,\n                lendingContracts[_id]._creator\n        );\n    }\n\n    function createLendingOffer (\n        uint256 _amount_,\n        uint256 _ltvRate_,\n        uint256 _dailyInterest_,\n        uint256 _duration_\n        ) public onlyOwner returns (uint256){\n            uint256 _id = lendingContractId++;\n            uint256 _amountETH_ = _amount_.div(_ltvRate_);\n            lendingContracts[_id] = LendingContract ({\n                _amount : _amount_,\n                _ltvRate : _ltvRate_,\n                _amountETH : _amountETH_,\n                _durationDate : _duration_,\n                _creator: msg.sender,\n                _isActive : true,\n                _borrower: msg.sender,\n                _dailyInterest : _dailyInterest_,\n                _loanDate : 0,\n                _loanOutOfDate : 0,\n                _isExpried: false,\n                _isRepay :false\n            });\n            emit LendOfferCreated(\n                _id,\n                _amount_,\n                _ltvRate_,\n                _amountETH_,\n                msg.sender\n                );\n        IGCoin(_gCoinContractAddress).transferToPeerToPeerLendingContract(\n            msg.sender,\n            _amount_\n            );\n\n            return _id;\n        }\n\n    function borrowed (uint256 _id) public payable {\n        address _borrower = msg.sender;\n        LendingContract storage offer = lendingContracts[_id];\n\n        require(offer._isActive == false, 'Offer was borrowed ');\n        require(msg.value > offer._amountETH, 'Not enough ETH');\n\n        IGCoin(_gCoinContractAddress).transferToPeerToPeerLendingContract(\n            _borrower, offer._amount);\n\n        offer._isActive = true;\n        offer._loanDate = block.timestamp;\n        offer._amountETH = msg.value;\n        offer._borrower = msg.sender;\n        offer._loanOutOfDate = block.timestamp.add(offer._durationDate);\n\n        emit OfferActive(_id, _borrower, msg.value, offer._loanDate);\n    }    \n\n    function repay (uint256 _id) public {\n        LendingContract storage offer = lendingContracts[_id];\n        require(msg.sender == offer._borrower, \"You are not borrower\");\n        require(offer._isRepay == false, 'Offer is repayed ');\n\n        uint256 totalRepay;\n        uint256 loanDayAmount = (block.timestamp.sub(offer._loanDate)).div(86400);\n\n        if(loanDayAmount  < offer._loanOutOfDate){\n            uint256 dailyInterestTotal = (loanDayAmount.mul(offer._dailyInterest))\n            .mul(offer._amount.div(100));\n            uint256 repayEarly =  (offer._amount.div(100)).mul(5);\n            totalRepay = dailyInterestTotal.add(repayEarly);\n        }\n        totalRepay = (loanDayAmount.mul(offer._dailyInterest)).mul(offer._amount.div(100));\n        lendingContracts[_id]._isRepay = true;\n\n        // repay coin to contract\n        IGCoin(_gCoinContractAddress)\n        .transferToPeerToPeerLendingContract(msg.sender, totalRepay);\n\n        // repay coin to lender\n        IGCoin(_gCoinContractAddress)\n        .transferBackToUser(offer._creator, totalRepay);\n\n        // borrower receive ETH \n        payable(msg.sender).transfer(offer._amountETH);\n\n        emit OfferRepaid(_id, totalRepay);\n    } \n}",
  "sourcePath": "/Users/trangiang/Desktop/P2pLending/contracts/PeerToPeerLendingContract.sol",
  "compiler": {
    "name": "solc",
    "version": "0.7.6+commit.7338295f.Emscripten.clang"
  },
  "schemaVersion": "3.3.4",
  "updatedAt": "2021-04-12T15:37:32.085Z",
  "networkType": "ethereum",
  "devdoc": {
    "kind": "dev",
    "methods": {
      "owner()": {
        "details": "Returns the address of the current owner."
      },
      "renounceOwnership()": {
        "details": "Leaves the contract without owner. It will not be possible to call `onlyOwner` functions anymore. Can only be called by the current owner. NOTE: Renouncing ownership will leave the contract without an owner, thereby removing any functionality that is only available to the owner."
      },
      "transferOwnership(address)": {
        "details": "Transfers ownership of the contract to a new account (`newOwner`). Can only be called by the current owner."
      }
    },
    "version": 1
  },
  "userdoc": {
    "kind": "user",
    "methods": {},
    "version": 1
  }
}